:020000040800F2
:1000000000300020D52D0008192D00081B2D0008F8
:100010001D2D00081F2D0008212D000800000000E4
:10002000000000000000000000000000232D000878
:10003000252D000800000000272D0008292D0008AC
:10004000252E0008252E0008252E0008252E000844
:10005000252E0008252E0008252E0008252E000834
:10006000252E0008252E0008252E0008252E000824
:10007000252E0008252E0008252E0008252E000814
:10008000252E0008252E0008352D0008252E0008F5
:100090004D2D00085D2D0008252E0008252E000896
:1000A000252E0008252E0008252E0008252E0008E4
:1000B000252E0008252E000800000000252E00082F
:1000C000252E00080000000000000000252E00087A
:1000D00000000000252E0008252E0008252E00080F
:1000E000252E0008252E000800000000000000005A
:1000F0000000000000000000000000000000000000
:1001000000000000000000000000000000000000EF
:100110000000000000000000252E0008252E000829
:1001200000000000000000000000000000000000CF
:1001300000000000000000000000000000000000BF
:10014000252E0008252E00080000000000000000F9
:10015000000000000000000000000000000000009F
:10016000000000000000000000000000000000008F
:10017000000000000000000000000000000000007F
:0801800000000000252E00081C
:1001880010B5054C237833B9044B13B10448AFF3C9
:1001980000800123237010BD04000020000000002F
:1001A800282E000808B5034B1BB103490348AFF3D9
:1001B800008008BD0000000008000020282E00086C
:1001C80070B50D4E0D4CA41BA4100025A54209D1F5
:1001D8000B4E0C4C02F024FEA41BA4100025A542D3
:1001E80005D170BD56F8253098470135EEE756F829
:1001F800253098470135F2E7A82E0008A82E0008F8
:10020800A82E0008AC2E000810B50446074B186845
:10021800074BA3FB0030800901F004FB00222146B4
:100228004FF0FF3001F0BEFA002010BD00000020A2
:10023800D34D621008B5074A136843F010031360E2
:10024800032001F09DFA0020FFF7DEFF02F018FD01
:10025800002008BD00200240024A136801331360E1
:10026800704700BF58000020014B1868704700BF56
:10027800580000207047704738B50268936803F04B
:100288000303012B01D0002038BD136813F0010FC0
:100298002FD0936803F00D03012B09D0436C43F072
:1002A80010034364836C43F0010383640120EBE78C
:1002B8000446936843F002039360036803221A60BC
:1002C800FFF7D2FF054623689B6813F0010F0ED095
:1002D800FFF7CAFF401B0228F5D9636C43F01003EF
:1002E8006364A36C43F00103A3640120CCE70020FE
:1002F800CAE70020C8E7000038B50268936803F031
:100308000303012B0DD09168184B19420FD0436C91
:1003180043F010034364836C43F0010383640120BA
:1003280038BD136813F0010FEDD00020F8E704463C
:10033800936843F001039360FFF796FF054623682F
:100348001B6813F0010F0ED1FFF78EFF401B022828
:10035800F5D9636C43F010036364A36C43F00103A5
:10036800A3640120DCE70020DAE700BF3F0000803B
:1003780030B597B000230093002800F0F5800446BC
:10038800436C13F0100F52D1436CABB100202368BB
:100398009A6812F0805F03D09B6813F0005F47D023
:1003A800636C23F0120343F010036364A36C43F0FF
:1003B8000103A36401203BE083640365C36480F800
:1003C800403002F0A1F823689B6813F0805F01D0E9
:1003D8000020DCE72046FFF74FFF636C13F0100F97
:1003E800D5D10028D3D1636C23F4885323F00203BA
:1003F80043F0020363642268936823F040539360D8
:100408002268936843F080539360584B1B68584A9E
:10041800A2FB03239B0C03EB83035A00009202E028
:10042800009B013B0093009B002BF9D1AFE7002014
:10043800636C13F0100F40F08E80002840F08B8022
:1004480023689A6812F0040240F08580616C21F4F8
:10045800817141F002016164B3F1A04F52D04FF0B5
:10046800A0410191996801F0030101294DD0019B38
:1004780023B1996801F0030101294BD03D498B68EC
:1004880023F4403365682B438B60E1694B03A56B0C
:10049800012D01D04FF480521343E2681343A26840
:1004A8001343626A012A3AD0E26A012A02D0216B18
:1004B8000A4313432268916811F00C0F0BD1D168DD
:1004C80021F4804121F00201D160A169626B5200E0
:1004D80042EA813213432168CD68274A2A401343F0
:1004E800CB602369012B2DD02268136B23F00F03F7
:1004F80013630023A364636C23F0030343F0010335
:1005080063642FE01D490191ACE71B6813F0010FEC
:10051800BBD1ACE71B6813F0010FB6D1AEE731B918
:10052800A26A013A43EA424343F48033BCE7626C6F
:1005380022F0220242F020026264A26C42F0010220
:10054800A264B1E721680B6B23F00F03226A013A1A
:1005580013430B63CDE7636C23F0120343F01003DE
:100568006364012017B030BD0120FBE700000020C4
:1005780083DE1B430003005007C0F0FF000100505A
:1005880003689B6813F0040F40F0908090F84030A7
:10059800012B00F08E8010B50446012380F840300E
:1005A800FFF7AAFE034600287BD1626C22F4706232
:1005B80022F0010242F4807262643F4A926812F0AB
:1005C8001F0F17D02168B1F1A04F13D0626C42F40D
:1005D80080126264394A91421BD14FF0A042D2681E
:1005E80012F0007F15D0626C22F4405242F480521F
:1005F80062640EE0626C22F4801262642268D2683F
:1006080012F0007F05D0626C22F4405242F480520E
:100618006264626C12F4805F34D0A26C22F006022D
:10062800A264002284F8402022681C2111606269BB
:10063800082A2AD121684A6822F004024A602168FF
:100648004A6842F008024A60A26B012A23D01A4A7B
:10065800926812F01F0F0FD0174A926802F01F021B
:10066800052A09D0144A926802F01F02092A03D009
:100678002268B2F1A04F17D121688A6842F00402BB
:100688008A6011E00022A264CBE721684A6842F040
:100698000C024A60D8E721684A6822F010024A60D2
:1006A800D5E7002284F84020184610BD02231846DA
:1006B80070470223FBE700BF000300500001005011
:1006C8000368186C704770477047704770470000A0
:1006D80010B5044603681A6812F0040F03D05A686C
:1006E80012F0040F07D11A6812F0080F52D05A6896
:1006F80012F0080F4ED0626C12F0100F03D1626C2A
:1007080042F400726264A34A926812F01F0F12D07A
:10071800A04A926802F01F02052A0CD09D4A9268EE
:1007280002F01F02092A06D0B3F1A04F03D04FF000
:10073800A042D16800E0D968DA6812F4406F23D18A
:1007480011F4005F20D11A6812F0080F1CD09A68C3
:1007580012F0040F10D15A6822F00C025A60636C30
:1007680023F480736364636C13F4805F0CD1636C4F
:1007780043F00103636407E0636C43F010036364B0
:10078800A36C43F00103A364204601F0D7FF23685C
:100798000C221A6023681A6812F0200F03D05A68D6
:1007A80012F0200F07D11A6812F0400F71D05A6862
:1007B80012F0400F6DD0626C42F400526264754AC8
:1007C800926812F01F0F12D0724A926802F01F024C
:1007D800052A0CD06F4A926802F01F02092A06D037
:1007E800B3F1A04F03D04FF0A042D16800E0D96820
:1007F800DA6C12F0C00F09D011F0007F43D1DA682B
:1008080012F4406F3FD111F4005F3CD11A6812F026
:10081800400F38D05F4A926812F01F0F12D05D4A1D
:10082800926802F01F02062A0CD05A4A926802F017
:100838001F02072A06D0B3F1A04F03D04FF0A04201
:10084800D26800E0DA6812F4001F1CD19A6812F02E
:10085800080F10D15A6822F060025A60636C23F4C2
:1008680080536364636C13F4807F0CD1636C43F032
:100878000103636407E0636C43F010036364A36CD3
:1008880043F00103A3642046FFF71DFF236860229D
:100898001A6023681A6812F0800F03D05B6813F09F
:1008A800800F3ED123681A6812F4807F03D05B68FA
:1008B80013F4807F40D123681A6812F4007F03D0B4
:1008C8005B6813F4007F43D123681A6812F0100F95
:1008D8001DD05A6812F0100F19D0A26B012A08D047
:1008E8002C4A926812F01F0F3ED1DB6813F0010FFB
:1008F8000AD0636C43F480636364A36C43F002031F
:10090800A3642046FFF7B7FC236810221A60236807
:100918001A6812F4806F03D05A6812F4806F29D1D4
:1009280010BD636C43F4803363642046FFF7A2FC78
:10093800236880221A60B5E7636C43F4003363646C
:100948002046FFF7C2FE23684FF480721A60B2E7B0
:10095800636C43F4802363642046FFF7B7FE236883
:100968004FF400721A60AFE70A4B9B6813F4404FCC
:10097800CAD0BEE7626C42F480426264A26C42F064
:100988000802A2644FF480621A602046FFF79CFEBA
:10099800C6E700BF0003005030B496B000220092B2
:1009A80090F84020012A00F0A4810346012280F833
:1009B80040200068826812F0040F40F08F814A6876
:1009C800042A31D8046B02EB420255001F22AA40C8
:1009D80024EA02020C68AC40224302631868826869
:1009E80012F00C0F68D10A68092A4ED9846902EB03
:1009F80042021E3A0725954024EA05048D6805FA47
:100A080002F22243826148691C68E268C2F3C102AB
:100A1800520000FA02F208690138032800F28B80BC
:100A2800DFE800F04068737E092A0ED8446B02EBB9
:100A3800420255001E3D1F22AA4024EA02020C6809
:100A480004FA05F52A434263C8E70E2A0ED8846BD8
:100A580002EB420255003C3D1F22AA4024EA020252
:100A68000C6804FA05F52A438263B7E7C46B02EB06
:100A7800420255005A3D1F22AA4024EA02020C688D
:100A880004FA05F52A43C263A8E7446902EB420267
:100A98000725954024EA05048D6805FA02F22243E9
:100AA8004261B0E7206E944D0540086842EA8062D2
:100AB800154345F0004525661868826802F0030270
:100AC800012A6BD0CA68012A6ED0D0F8B0200D6810
:100AD8000124AC4022EA0402C0F8B0200A68102AB7
:100AE80000F08B80112A00F0A980122A00F0AC8057
:100AF8000020F8E0606E804D0540086842EA806298
:100B0800154345F000456566D6E7A06E7A4D054069
:100B1800086842EA8062154345F00045A566CBE7C0
:100B2800E56E754828400D6842EA8562024342F046
:100B38000042E266C0E7226E02F0F8420868B2EBB3
:100B4800806F1CD01868426E02F0F8420C68B2EB55
:100B5800846F19D01868826E02F0F8420C68B2EB04
:100B6800846F16D01868C26E02F0F8420C68B2EBB7
:100B7800846FA1D1C26E22F00042C2669CE7226E49
:100B880022F000422266DDE7426E22F00042426611
:100B9800E0E7826E22F000428266E3E7026812F024
:100BA800010F8FD000209EE0D0F8B0200D680124FE
:100BB800AC402243C0F8B0200A68092A0ED91D6843
:100BC800A86902EB42021B3A0724944020EA040079
:100BD8008C6804FA02F20243AA617FE71D6868691B
:100BE800013202EB42020724944020EA04008C6898
:100BF80004FA02F202436A6170E74049896811F415
:100C0800000F7FF46FAF1868B0F1A04F23D04FF0FA
:100C1800A0410191816801F0030101291ED00199C9
:100C280021B18C6804F00304012C21D0102A24D0AF
:100C3800112A42D0122A4AD0002054E02F4989684C
:100C480011F0807FDFD050E72C49896811F4800FBC
:100C5800D9D0002047E02A490191DBE7016811F06B
:100C6800010FDCD05A6C42F020025A6401203AE0AD
:100C7800096811F0010FF5D1D8E7B0F1A04FD7D12D
:100C88001E498A6842F400028A601E4A1268A1F16D
:100C98004E61A1F58421A1F27D41A1FB0212920CC3
:100CA80002EB82025100009102E0009A013A0092A0
:100CB800009A002AF9D1002015E0B0F1A04FB9D16F
:100CC8000E498A6842F080728A6000200BE00B4966
:100CD8008A6842F480028A60002004E05A6C42F07C
:100CE80020025A640120002283F8402016B030BC4C
:100CF80070470220FAE700BF00F0FF8300030050AE
:100D0800000100500000002070B497B0034602684C
:100D1800B2F1A04F39D04FF0A040019001980028BF
:100D280072D093F84040012C70D0012483F84040E1
:100D3800926812F0040F5CD1826812F0040F58D147
:100D48000A68002A30D0324DAA6822F460424C6802
:100D58005E6B44EA46342243AA601C68A26802F02B
:100D68000302012A14D0826802F00302012A15D076
:100D7800274CA26822F4716222F00F020868896881
:100D880001430A43A260002038E022480190C5E7E9
:100D9800226812F0010FE6D000202FE0026812F05E
:100DA800010FE5D0002029E019498A6822F4604241
:100DB8008A6019688A6802F00302012A0DD08268E5
:100DC80002F00302012A0ED011498A6822F47162E6
:100DD80022F00F028A60002010E00A6812F0010F6A
:100DE800EDD000200AE0026812F0010FECD00020DC
:100DF80004E05A6C42F020025A640120002283F871
:100E0800402017B070BC70470120FAE70220F8E7CD
:100E18000003005000010050F0B44B69012202FAAF
:100E280003F30468D4F8002242F00102C4F8002257
:100E38000568D5F81C42DA431440C5F81C42CC6951
:100E4800C4B90568D5F80C421440C5F80C42CF68FF
:100E58008D8806684C6945EA0745483446F8345099
:100E68008F680D8804684E6945EA0745483604EBE3
:100E7800C6046560CC69012C1ED08C69002C35D164
:100E88000568D5F804421440C5F804420C69002CE2
:100E980033D10468D4F814522A40C4F814220A6AD8
:100EA800012A31D00268D2F8003223F00103C2F8D7
:100EB80000320020F0BC70470568D5F80C421C438E
:100EC800C5F80C420F688D8806684C6945EA0745E5
:100ED800483446F834508F688D8904684E6945EA6D
:100EE8000745483604EBC6046560C6E70568D5F8CB
:100EF80004421C43C5F80442C8E70468D4F8142225
:100F08001A43C4F81422CAE70168D1F81C22134313
:100F1800C1F81C32C6E7002800F0B58038B5044691
:100F280090F83D3003B3022384F83D3022681368FB
:100F380023F0020313602268136843F0010313606F
:100F4800FFF792F9054623685A6812F0010F10D18D
:100F5800FFF78AF9401B0A28F5D9032084F83D00D9
:100F6800002384F83C3038BD80F83C3001F04CFB5D
:100F7800D9E75A6812F0010F7AD0A269012A50D035
:100F88001A6822F080021A60E369012B4ED02268A9
:100F9800136823F040031360236A012B4CD02268A6
:100FA800136823F020031360636A012B4AD0226878
:100FB800136823F010031360A36A012B48D022683A
:100FC800136823F008031360E36A012B46D02268F4
:100FD800136823F004031360A368E26813432269CB
:100FE8001343626913436268013A21681343CB6172
:100FF8002268136823F001031360FFF735F90546EB
:1010080023685A6812F0010F2ED0FFF72DF9401B04
:101018000A28F5D9032084F83D00002384F83C30E1
:10102800A1E71A6842F080021A60ADE722681368E7
:1010380043F040031360AFE72268136843F02003CE
:101048001360B1E72268136843F010031360B3E735
:101058002268136843F008031360B5E72268136831
:1010680043F004031360B7E75B6813F0010F04D083
:10107800042384F83D30012075E700202064012313
:1010880084F83D306FE7012070470000F8B5036829
:101098009A6812F0806F08D19A6812F0006F04D134
:1010A8009A6812F0805F00F0EE8090F83C20012AE8
:1010B80000F0EE80012280F83C2090F83D20D2B26A
:1010C800322A14D0622A16D0222A03D0122280F89B
:1010D8003D2002E0422280F83D209A6812F0806F9D
:1010E8000DD19A6812F0006F5FD0012508E05222F6
:1010F80080F83D20F1E7722280F83D20EDE70025D9
:1011080005F1180212019C5804F001049C50026B6E
:101118009368002B4BD1066805F118031B01F4589E
:101128001768D26842EA47522243F2500E460446F4
:10113800026B136903F00F031361036805F11802CA
:1011480012011344596821F00F01596003681344D0
:101158005968006B006901435960216BC87D8B7D1C
:101168001B0443EA0063487D43EA0023097D2068A5
:101178000B432F013844C0F88831216BC87E8B7E21
:101188001B0443EA0063487E43EA0023087E216883
:1011980003433944C1F88C3121688B5843F001036B
:1011A8008B50FFF761F807463FE00225A8E707687C
:1011B80005F11804240157F804C0566843EAC60329
:1011C800D268134343EA0C033B51AFE726B1FFF75C
:1011D8004BF8C01BB04228D9032384F83D304DB9E1
:1011E8002268936843F080039360002384F83C30BE
:1011F80003203FE0012D05D02268936843F40003E3
:101208009360F2E72268936843F400439360ECE745
:10121800012D14D023689A681E4B934314BF0123F1
:101228000023A3B1B6F1FF3FD0D1002DF0D1236840
:101238009A68194B934314BF01230023F1E72368ED
:101248009A68164B934314BF01230023E9E794F8E7
:101258003D30DBB2522B0ED0722B10D0422B03D074
:10126800012384F83D3002E0222384F83D30002039
:1012780084F83C00F8BD322384F83D30F7E7622358
:1012880084F83D30F3E7042380F83D300120F1E78E
:101298000220EFE70000011001000004000100082F
:1012A80090F83C30012B00F08680012380F83C3018
:1012B80099B990F83D30DBB2222B20D090F83D3020
:1012C800DBB2422B1BD090F83D30DBB2622B16D03C
:1012D80090F83D30DBB2722B11D0012914D010B434
:1012E800002948D190F83D30DBB2322B3BD0522B4D
:1012F8003DD0122B21D0222380F83D3020E000235E
:1013080080F83C300220704790F83D30DBB2322B39
:101318000ED090F83D30DBB2522B09D090F83D301A
:10132800DBB2622B04D090F83D30DBB2722BD6D101
:10133800002380F83C3002207047422380F83D307B
:10134800002202640468636943F40F43636180F810
:101358003C2049B30268536943F0500353610020AD
:101368005DF8044B7047622380F83D30E8E772234C
:1013780080F83D30E4E790F83D30DBB2222B0BD00B
:10138800422B0DD0122B03D0322380F83D30D7E703
:10139800522380F83D30D3E7622380F83D30CFE711
:1013A800722380F83D30CBE70268536943F00A03A3
:1013B80053610020D4E702207047704708B50268DF
:1013C800536923F00103536190F83D30DBB2122BCF
:1013D8000CD090F83D30DBB2522B14D0722B16D0C3
:1013E800422B09D0012380F83D3008E00268536998
:1013F80023F40F435361ECE7222380F83D30FFF7D5
:10140800DCFF002008BD322380F83D30F7E7622377
:1014180080F83D30F3E710B50C4600297ED1436BC8
:10142800016804F11B0212018A5802F004029A6052
:10143800002A75D1016804F11B0212018A58520D65
:101448001A60016804F11B0212018958C1F34001B6
:10145800D96001681144496801F00F0119610168F8
:101468000A445268C2F30722DA611C620168220149
:101478001144D1F8B811197501681144D1F8B8119F
:10148800090A597501681144D1F8B811090C997500
:1014980001681144D1F8B811090ED97501681144D1
:1014A800D1F8BC11197601681144D1F8BC11090AA8
:1014B800597601681144D1F8BC11090C9976016874
:1014C8000A44D2F8BC21120EDA76002C30D1026818
:1014D800D36843F02003D3600268536923F00A03FA
:1014E800536190F83D30DBB2222B04D090F83D30A8
:1014F800DBB2322B04D10268536923F40F435361E2
:1015080084BB90F83D30DBB2622B23D0722B25D000
:10151800422B18D0012380F83D3017E0836B7FE71A
:10152800016804F11B0212018A58D2085A6088E740
:101538000268136943F0200313610268536923F0BA
:1015480050035361CDE7122380F83D3001F016F9BE
:10155800002010BD322380F83D30F7E7522380F891
:101568003D30F3E790F83D30DBB2622B0BD0722BA5
:101578000DD0522B03D0012380F83D30E6E712232B
:1015880080F83D30E2E7222380F83D30DEE7422351
:1015980080F83D30DAE7704738B504460368DA6802
:1015A80012F0100F09D05A6912F0080F00F09B8052
:1015B8001022DA604FF4007500E0002523681A69EC
:1015C80012F0100F07D05A6912F0400F03D045F4FB
:1015D800806510221A6123685A6912F0010F1FD022
:1015E8009968634A8A4307D09968624A8A4303D054
:1015F8009968614A8A4313D19A6812F0020F07D199
:101608009A6812F4007F03D19B6813F4003F6CD0F2
:101618002046FFF7D3FE22689168584B0B4393602E
:1016280023685A6912F0020F03D0DB6813F0030F26
:101638005ED123685A6912F0100F03D01B6913F0AA
:10164800030F5AD1236C2B43236423689A6912F041
:10165800010F0BD05A6912F4807F07D05A6912F42F
:10166800004F03D0226C42F0010222649A6912F002
:10167800020F0BD05A6912F4007F07D05A6912F48E
:10168800004F03D0226C42F0020222649A6912F0E1
:10169800040F0BD05A6912F4806F07D05A6912F4FC
:1016A800004F03D0226C42F0040222649A6912F0BF
:1016B800700F38D05A6912F4006F34D05A6912F496
:1016C800004F30D09A6902F07002302A2ED019D912
:1016D800502A30D0602A33D0402A20D1226C42F0E0
:1016E800400222641BE0002568E745F4006592E7A4
:1016F80000212046FFF78FFE9BE701212046FFF7D8
:101708008AFE9FE7102A06D0202A08D1226C42F0D0
:101718001002226403E0226C42F0080222649A69F3
:1017280022F070029A61236C7BB938BD226C42F0BA
:1017380020022264F3E7226C42F080022264EEE782
:10174800226C42F480722264E9E72268536843F00D
:1017580004035360012384F83D302268536923F45D
:101768000F4323F05B0353612046FFF714FFDCE7C8
:101778000100000400010008000001101905010023
:10178800074AD36823F4E0631B041B0C000200F42F
:10179800E060184340F0BF6040F40030D06070470C
:1017A80000ED00E030B4174BDB68C3F30223C3F14C
:1017B8000704042C28BF04241D1D062D18D9033B3B
:1017C8004FF0FF3505FA04F421EA0401994005FABF
:1017D80003F322EA0303194300280BDB0901C9B20A
:1017E80000F1604000F5614080F8001330BC70479C
:1017F8000023E5E700F00F000901C9B2024B1954B4
:10180800F4E700BF00ED00E014ED00E000F01F0277
:10181800400901239340024A42F82030704700BF34
:1018280000E100E00138B0F1807F0AD2064B586031
:10183800064AF02182F823100020986007221A60D7
:1018480070470120704700BF10E000E000ED00E0A5
:10185800042805D0054A136823F004031360704771
:10186800024A136843F004031360704710E000E075
:10187800704708B5FFF7FCFF08BD0000F0B482B060
:10188800002336E0032400E00024B4403C43023542
:10189800584E46F82540584C2568D44304EA0506B6
:1018A8004F6817F4803F01D042EA0506524D2E607A
:1018B8006D6804EA05064F6817F4003F01D042EA54
:1018C80005064D4D6E60AD6804EA05064F6817F4CD
:1018D800801F01D042EA0506474DAE60ED682C40F6
:1018E8004E6816F4001F01D042EA0504424AD4604B
:1018F80001330A6832FA03F478D001249C4022406C
:10190800F6D04D68022D01D0122D10D1DE08083610
:1019180050F826C003F00705AF000F25BD402CEA9C
:10192800050C0D69BD4045EA0C0540F826500668CF
:101938005F000325BD40ED4305EA060C4E6806F03E
:101948000306BE4046EA0C0606604E6806F1FF3CF8
:10195800BCF1010F03D9112E01D0122E10D18668C7
:1019680005EA060CCE68BE4046EA0C068660466864
:1019780026EA04044E68C6F300169E4026434660D5
:10198800C46825408C68BC402C43C4604C6814F083
:10199800805FADD0194CA56945F00105A561A46922
:1019A80004F001040194019C9D08AE1C114C54F8EC
:1019B800267003F00304A6000F24B44027EA0407A6
:1019C800B0F1904F3FF460AF0D4CA0420AD004F53F
:1019D8008064A04208D004F58064A0423FF452AF6E
:1019E800052452E7012450E702244EE702B0F0BC78
:1019F800704700BF00000140000401400010024091
:101A0800000400480AB9816270478161704700008C
:101A180070B582B00446036813F0010F3BD0B64B93
:101A28005B6803F00C03042B1ED0B34B5B6803F018
:101A38000C03082B13D06368B3F5803F68D0002BE4
:101A480040F0928003F1804303F504331A6822F4CE
:101A580080321A601A6822F480221A605DE0A64B70
:101A68005B6813F4803FE6D04FF4003393FAA3F396
:101A7800A14B19684FF4003393FAA3F3B3FA83F335
:101A880003F01F03012202FA03F30B4203D0636839
:101A9800002B00F0B382236813F0020F00F0C68019
:101AA800954B5B6813F00C0F00F09C80924B5B68C1
:101AB80003F00C03082B00F08F802369002B00F043
:101AC800F380012292FAA2F3B3FA83F303F1845369
:101AD80003F584139B001A60FEF7C6FB0546022334
:101AE80093FAA3F3844B1968022393FAA3F3B3FA86
:101AF80083F303F01F03012202FA03F30B4240F0C1
:101B0800C480FEF7B1FB401B0228E8D903207CE221
:101B1800794A136843F480331360774AD36A23F011
:101B28000F03A1680B43D3626368002B36D0FEF71E
:101B38009BFB05464FF4003393FAA3F36E4B1968E9
:101B48004FF4003393FAA3F3B3FA83F303F01F03BC
:101B5800012202FA03F30B429DD1FEF785FB401BDD
:101B68006428E7D9032050E2B3F5A02F09D0624BCF
:101B78001A6822F480321A601A6822F480221A60E5
:101B8800CBE703F18043A3F53C331A6842F4802283
:101B98001A601A6842F480321A60BEE7FEF764FBE6
:101BA80005464FF4003393FAA3F3534B19684FF4E7
:101BB800003393FAA3F3B3FA83F303F01F0301226C
:101BC80002FA03F30B423FF466AFFEF74DFB401BEE
:101BD8006428E6D9032018E2474B5B6813F4803F7A
:101BE8007FF46BAF022393FAA3F3434B19680223E4
:101BF80093FAA3F3B3FA83F303F01F03012202FA63
:101C080003F30B4204D02369934201D00120FCE185
:101C18003948036823F0F8036169F82292FAA2F2BE
:101C2800B2FA82F201FA02F213430360236813F056
:101C3800080F00F08D80A369002B61D0012191FA73
:101C4800A1F2B2FA82F22D4B13449B001960FEF701
:101C58000BFB0546022393FAA3F293FAA3F293FA35
:101C6800A3F2254A516A93FAA3F3B3FA83F303F074
:101C78001F03012202FA03F30B4269D1FEF7F4FABB
:101C8800401B0228E6D90320BFE11B48036823F064
:101C9800F8036169F82292FAA2F2B2FA82F201FA22
:101CA80002F213430360C1E7012393FAA3F3B3FAE3
:101CB80083F303F1845303F584139B0000221A6015
:101CC800FEF7D2FA0546022393FAA3F30A4B1968E2
:101CD800022393FAA3F3B3FA83F303F01F03012259
:101CE80002FA03F30B42A1D0FEF7BEFA401B02280A
:101CF800E9D9032089E100BF00100240208190103B
:101D0800012292FAA2F2B2FA82F2C14B13449B006A
:101D180000221A60FEF7A8FA0546022393FAA3F2F6
:101D280093FAA3F293FAA3F2BA4A516A93FAA3F385
:101D3800B3FA83F303F01F03012202FA03F30B4201
:101D480006D0FEF791FA401B0228E6D903205CE191
:101D5800236813F0040F00F0B380AE4BDB6913F077
:101D6800805F20D1AB4BDA6942F08052DA61DB69DF
:101D780003F080530193019B0125A74B1B6813F4C3
:101D8800807F12D0E368012B23D073BB03F180431B
:101D980003F504331A6A22F001021A621A6A22F061
:101DA80004021A621AE00025E7E79B4A136843F425
:101DB80080731360FEF758FA0646974B1B6813F4B6
:101DC800807FDFD1FEF750FA801B6428F5D9032005
:101DD8001BE1904A136A43F001031362E368002B86
:101DE80041D0FEF741FA06462BE0052B09D0894B76
:101DF8001A6A22F001021A621A6A22F004021A62AE
:101E0800ECE7844B1A6A42F004021A621A6A42F03A
:101E180001021A62E2E77F4B196A022393FAA3F3DD
:101E2800B3FA83F303F01F03012202FA03F3194202
:101E380045D1FEF719FA801B41F28833984200F227
:101E4800DF80022393FAA3F293FAA3F3B3FA83F39E
:101E58005B0943F00203022BDDD0022393FAA3F3BC
:101E68006C4B596AD9E7FEF7FFF9064615E0694B4E
:101E7800196A022393FAA3F3B3FA83F303F01F0357
:101E8800012202FA03F3194219D0FEF7EDF9801B7B
:101E980041F28833984200F2B580022393FAA3F204
:101EA80093FAA3F3B3FA83F35B0943F00203022B1B
:101EB800DDD0022393FAA3F3564B596AD9E7B5BB91
:101EC800E369002B00F0A080524A526802F00C022D
:101ED800082A00F0A380022B2FD04FF0807393FACA
:101EE800A3F3B3FA83F303F1845303F584139B003C
:101EF80000221A60FEF7B8F904464FF0007393FA0F
:101F0800A3F3444B19684FF0007393FAA3F3B3FAA1
:101F180083F303F01F03012202FA03F319426BD083
:101F2800FEF7A2F9001B0228E7D903206DE0394A21
:101F3800D36923F08053D361C2E74FF0807393FADB
:101F4800A3F3B3FA83F303F1845303F584139B00DB
:101F580000221A60FEF788F905464FF0007393FADD
:101F6800A3F32C4B19684FF0007393FAA3F3B3FA59
:101F780083F303F01F03012202FA03F3194206D088
:101F8800FEF772F9401B0228E7D903203DE02149FA
:101F98004B6823F47413626A206A024313434B604C
:101FA8004FF0807393FAA3F3B3FA83F303F18453E6
:101FB80003F584139B0001221A60FEF755F90446C5
:101FC8004FF0007393FAA3F3124B19684FF00073A4
:101FD80093FAA3F3B3FA83F303F01F03012202FA7F
:101FE80003F3194206D1FEF73FF9001B0228E7D98F
:101FF80003200AE0002008E0002006E0012004E0B9
:10200800032002E0032000E0002002B070BD00BF02
:102018002081901000100240007000400120F4E779
:1020280010B4174B5C6804F00C03082B26D104F499
:1020380070124FF4701393FAA3F3B3FA83F322FAEE
:1020480003F31049C85C0E4BDB6A03F00F030F2241
:1020580092FAA2F2B2FA82F2D3400B441A7C14F438
:10206800803F05D1084B03FB00F05DF8044B704737
:10207800064BB3FBF2F300FB03F0F6E70348F4E783
:1020880000100240402E000800093D0000127A00AE
:10209800704B1B6803F007038B420CD26D4A136820
:1020A80023F007030B431360136803F007038B4205
:1020B80001D00120704770B5036813F0020F06D0F5
:1020C800654A536823F0F0038468234353600C4641
:1020D8000546036813F0010F7AD04368012B2FD00F
:1020E800022B42D0022292FAA2F25B4A1068022224
:1020F80092FAA2F2B2FA82F202F01F02012101FA68
:1021080002F2104200F0A48053494A6822F0030208
:1021180013434B60FEF7A8F806466B68012B39D0CD
:10212800022B46D04C4B5B6813F00C0F50D0FEF7D7
:102138009BF8801B41F288339842F3D9032086E04C
:102148004FF4003292FAA2F2434A10684FF4003278
:1021580092FAA2F2B2FA82F202F01F02012101FA07
:1021680002F20242D0D1012071E04FF0007292FADF
:10217800A2F2394A10684FF0007292FAA2F2B2FA4B
:1021880082F202F01F02012101FA02F21042BBD1D1
:1021980001205CE0304B5B6803F00C03042B17D084
:1021A800FEF762F8801B41F288339842F2D9032087
:1021B8004DE0294B5B6803F00C03082B08D0FEF7B1
:1021C80053F8801B41F288339842F2D903203EE04D
:1021D800204B1B6803F00703A3420CD91D4A136860
:1021E80023F0070323431360136803F00703A34294
:1021F80001D001202BE02B6813F0040F06D0164AFB
:10220800536823F4E063E9680B4353602B6813F0C9
:10221800080F07D0104A536823F46053296943EA2A
:10222800C1035360FFF7FCFE0B4B5B6803F0F00340
:10223800F02292FAA2F2B2FA82F2D340074AD35CB1
:10224800D840074B18600020FDF7DEFF002070BD66
:102258000120FCE70020024000100240602E000828
:1022680000000020014B1868704700BF00000020E4
:10227800F0B583B00446036813F4803F44D05F4B45
:10228800DB6913F0805F6ED15C4BDA6942F08052F3
:10229800DA61DB6903F080530193019B0125584BF8
:1022A8001B6813F4807F60D0544B1B6A13F440738F
:1022B80021D0626802F440729A421CD04F48016AE9
:1022C80021F440764FF4803393FAA3F2B2FA82F203
:1022D8004C4F3A4492004FF0010CC2F800C093FAF8
:1022E800A3F3B3FA83F33B449B0000221A6006620F
:1022F80011F0010F4DD1414A136A23F4407361680C
:102308000B431362002D6FD1236813F0010F06D021
:102318003A4A136B23F00303A1680B431363236842
:1023280013F0200F06D0354A136B23F01003E16831
:102338000B431363236813F0800F06D02F4AD36A28
:1023480023F4F87321690B43D362236813F4805F85
:1023580051D02A4A136B23F4807361690B431363CA
:10236800002003B0F0BD002599E7254A136843F41F
:1023780080731360FDF778FF0646214B1B6813F442
:10238800807F91D1FDF770FF801B6428F5D9032069
:10239800E7E7FDF769FF064614E0184B196A0223C0
:1023A80093FAA3F3B3FA83F303F01F03012202FAAB
:1023B80003F30B429FD1FDF757FF801B41F288338F
:1023C800984216D8022393FAA3F293FAA3F3B3FA26
:1023D80083F35B0943F00203022BDED0022393FA56
:1023E800A3F3064B596ADAE7D36923F08053D36124
:1023F8008AE70320B5E70020B3E700BF00100240DA
:10240800007000400081901000B58BB01F484FF05D
:10241800A043036000234360836003610122C2611B
:1024280043620363C262C36002624363042242617F
:1024380083618363FDF79CFFC0B90AA9002341F8B3
:102448000C3D1248FEF760FCA8B9012301930293E2
:1024580000230493072203920593069301A90B48CE
:10246800FEF79AFA60B90BB05DF804FB4C210848F6
:1024780000F0B4F9E1E75421054800F0AFF9E4E7CA
:102488006121034800F0AAF9EDE700BFB000002081
:10249800782E000800B587B01848194B0360002350
:1024A8004360836003610122C26143620363C262C5
:1024B800C360026243630422426183618363FDF760
:1024C80057FF88B904230093012301930023039342
:1024D800072202920493059369460848FEF75CFABE
:1024E80038B907B05DF804FB7C21064800F076F99E
:1024F800E8E78921034800F071F9F2E75C00002061
:1025080000010050782E000810B588B00368B3F1B8
:10251800A04F04D0274A934226D008B010BD264ABF
:10252800136801331360012B13D001230393032392
:1025380004930024059403A94FF09040FFF79EF9F7
:10254800224621461220FFF72DF91220FFF75EF9E7
:10255800E3E71A4B5A6942F080525A615B6903F00B
:1025680080530193019BE0E7134A1368013313601A
:10257800012B13D080230393032304930024059491
:1025880003A94FF09040FFF779F92246214612201F
:10259800FFF708F91220FFF739F9BEE7074B5A6928
:1025A80042F080525A615B6903F080530293029BA8
:1025B800E0E700BF000100502000002000100240AA
:1025C80008B50E480E4B0360042343600023836064
:1025D800C3604FF4C0220261436101228261C3617A
:1025E800036243628362C362FEF795FC00B908BDCB
:1025F8004721044800F0F2F8F9E700BF2C01002059
:1026080000640040882E000802681D4B9A4200D0E2
:10261800704710B586B003F5D633DA6942F0007218
:10262800DA61DB6903F000730093009B4FF4C05339
:1026380001930223029300240394032304930923A0
:10264800059301A94FF09040FFF718F9224621465B
:102658001420FFF7A7F81420FFF7D8F822462146E0
:102668001520FFF79FF81520FFF7D0F8054B064A0D
:1026780013635C60DC609C6008221A6106B010BDC0
:1026880000640040700100202C01002008B50C48AF
:102698000C4B43630C4900234B624B61CB61012215
:1026A8000A620B610B608B604B60CB608B61FEF73D
:1026B800B3FB00B908BDA821044800F08FF8F9E77A
:1026C8002C0100208C01002004010020882E000825
:1026D80010B588B0174B5A6942F480025A615A699A
:1026E80002F480020092009A5A6942F400325A6158
:1026F8005A6902F400320192019A5A6942F480221E
:102708005A615B6903F480230293029B0A4C0022FE
:1027180008212046FFF776F9082303930123049341
:1027280000230593069303A92046FFF7A7F808B0EE
:1027380010BD00BF001002400004004810B5044658
:102748000368B3F1A04F04D02268084B9A4206D020
:1027580010BD0748FDF7B4FF064B1880F4E706489C
:10276800FDF7AEFF034B5880F2E700BF00010050B1
:10277800B0000020240000205C000020436B1A6891
:10278800142A09D0012A1DD00268536943F40F4363
:1027980043F00A03536170470C4A01211171197DF6
:1027A8005A7D02EB01220A490A60997DDA7D02EB23
:1027B800012208490A601A7E5B7E03EB0223064A5F
:1027C8001360E1E71A7D014B5A71DDE72400002010
:1027D800B8010020B0010020B4010020FEE700008D
:1027E80000B597B001220C924FF480330D9300216D
:1027F8000E9110920222139214934FF480131593A2
:102808000CA8FFF705F958BB0F2307930223089379
:10281800002309934FF480620A920B93012107A8C1
:10282800FFF736FC08BB802301934FF480730593B0
:1028380001A8FFF71DFDE8B9FFF714FD104BA3FB36
:1028480000308009FEF7EEFF0420FFF701F80022B0
:1028580011464FF0FF30FEF7A5FF17B05DF804FBF7
:102868004FF4BB710748FFF7B9FF4FF4C271054831
:10287800FFF7B4FF40F28B110248FFF7AFFF00BF2C
:10288800D34D6210982E000808B5FDF7D3FCFFF76A
:10289800A7FFFFF71DFFFFF7FDFDFFF791FEFFF70D
:1028A800B3FD01220821A048FFF7ACF89F48FDF7C7
:1028B80067FE9F48FDF764FEFFF7E8FE8AE0DA68E6
:1028C80042F02002DA6000219A48FEF7E9FC88E02D
:1028D800994B9B791BB3FDF7C7FC974B9B68C01AB4
:1028E800962840F28C80944B5B7B022B00F2878009
:1028F800914C0123A373914A022111608D48026B08
:102908001375026B00235375026B9375026BD375B5
:102918000A21FEF7BBFB637B013363736FE0FDF7AE
:10292800A3FC854B986001229A7100221A73D2E7A2
:10293800814B1B79012B6FD17F4B00229A715A73FF
:102948009B7B012B68D17C4B1B7B022B64D87A4C78
:102958001346A273794A022111607648026B1375F7
:10296800026B5375026B9375026BD3750A21FEF7E0
:102978008DFB237B013323734EE0FDF775FC6E4B13
:1029880018610122DA7300221A7552E06A4A138824
:1029980052881344A3F63873B3F5CC7F03D8664B3B
:1029A800DB7B012B67D0644BDB7D012B00F084803F
:1029B800614B5B79012B00F0C7805F4B5B79012B82
:1029C80000F00081FDF750FC5B4B1B6BC01A082818
:1029D80000F23681574B1B68DA6812F0080F7FF453
:1029E8006EAF574B1B68574A12681344A3F2B633AD
:1029F800642B04D9504B1B79012B3FF469AF504B22
:102A08001B68504A12681344A3F2B733622B03D8E9
:102A1800494B9B79012B8BD0474A13885288134422
:102A2800A3F63773B3F5CD7FB0D9434BDB7B002BCF
:102A3800A3D0FDF719FC404B1B69C01A9628A5D9ED
:102A48003D4B5B7D022BA1D83B4C0123A3753B4A30
:102A5800032111603748026B1375026B002353750D
:102A6800026B9375026BD3750A21FEF70FFB637D2A
:102A7800013363758AE7304B0022DA735A759B7D00
:102A8800012B90D12C4B1B7D022B8CD82A4C134642
:102A9800A2752A4A032111602648026B1375026B3E
:102AA8005375026B9375026BD3750A21FEF7EEFA24
:102AB800237D0133237576E71F4B1B7E4BB3FDF750
:102AC800D3FB1D4BDB69C01A40F2EE2398427FF618
:102AD8006FAF194B93F82130022B3FF669AF164CB4
:102AE800012384F82230154A042111601148026B31
:102AF8001375026B00235375026B9375026BD375C4
:102B08000A21FEF7C3FA94F82130013384F8213002
:102B18004EE7FDF7A9FB084BD86101221A7600227F
:102B280083F82020CBE700BF00040048B000002055
:102B38005C0000202C0100202400002070010020EF
:102B4800B8010020B0010020494B1B68423B082B0C
:102B58007FF633AF474B93F8233043B3FDF784FB3D
:102B6800444B5B6AC01A40F2DC5398427FF625AFAB
:102B7800404B93F82930022B3FF61FAF3D4C012202
:102B880084F82A2000233C490B603C48016B0A75F5
:102B9800026B5375026B9375026BD3750A21FEF7AE
:102BA80075FA94F82930013384F8293005E7FDF7E0
:102BB8005BFB304B5862012283F82320002283F804
:102BC8002820CBE72A4B1B68433B062B3FF6FAAE7F
:102BD800284B93F82330012B28D0FDF745FB254BD4
:102BE800DB6AC01A40F2DC5398427FF6EBAE214B09
:102BF80093F82830022B3FF6E5AE1E4D002485F8E9
:102C08002A401D4B1C601D48036B1C75036B5C75CB
:102C1800036B9C75036BDC750A21FEF737FA95F890
:102C28002830013385F828306C71CBE6114C00252B
:102C380084F82350FDF718FBE06284F82950CCE7AC
:102C48000D4B0B221A600B4C23880C48026B5375F2
:102C5800026B1B0A13756388026BD375026B1B0A20
:102C680093750A21FEF712FAFDF7FEFA2063B1E622
:102C7800B801002024000020700100202C01002051
:102C880000B583B0214B9A6942F001029A619A69B2
:102C980002F001020092009ADA6942F08052DA6189
:102CA800DB6903F080530193019B0320FEF768FD65
:102CB800002211466FF00B00FEF774FD002211464A
:102CC8006FF00A00FEF76EFD002211466FF0090052
:102CD800FEF768FD002211466FF00400FEF762FD62
:102CE800002211466FF00300FEF75CFD002211463A
:102CF8006FF00100FEF756FD002211464FF0FF303D
:102D0800FEF750FD03B05DF804FB00BF0010024061
:102D18007047FEE7FEE7FEE7FEE77047704770473B
:102D280008B5FDF799FAFEF7A4FD08BD08B50348F4
:102D3800FDF7CEFC0248FDF7CBFC08BDB000002033
:102D48005C00002008B50248FEF726FC08BD00BF5D
:102D58002C01002008B50248FEF71EFC08BD00BF84
:102D68002C0100201549D1F8883043F47003C1F8CC
:102D78008830134B1A6842F001021A605868114AE9
:102D880002405A601A6822F0847222F480321A6073
:102D98001A6822F480221A605A6822F4FE025A60E5
:102DA800DA6A22F00F02DA62186B074A02401A63E5
:102DB80000229A604FF000638B60704700ED00E0DE
:102DC800001002400CC07FF8CCFC00FFDFF834D0C4
:102DD800002103E00C4B5B58435004310B480C4B6B
:102DE80042189A42F6D30B4A02E0002342F8043B09
:102DF800094B9A42F9D3FFF7B5FFFDF7E1F9FFF761
:102E080043FDFEE700300020B02E0008000000203F
:102E18000400002004000020BC010020FEE70000A0
:102E2800F8B500BFF8BC08BC9E467047F8B500BFAF
:082E3800F8BC08BC9E4670477F
:102E400002030405060708090A0B0C0D0E0F1010EB
:102E50000102030405060708090A0B0C0D0E0F10EA
:102E6000000000000000000001020304060708093A
:102E700000000000010203042E2E2F5372632F6105
:102E800064632E63000000002E2E2F5372632F63A5
:102E9000616E2E63000000002E2E2F5372632F6D83
:082EA00061696E2E6300000061
:042EA800AD01000870
:042EAC008901000890
:042EB00000127A0092
:0400000508002DD5ED
:00000001FF
